{
  "_format": "hh-sol-artifact-1",
  "contractName": "LynkEscrow",
  "sourceName": "contracts/LynkEscrow.sol",
  "abi": [
    {
      "inputs": [
        {
          "internalType": "address",
          "name": "_buyer",
          "type": "address"
        },
        {
          "internalType": "address",
          "name": "_seller",
          "type": "address"
        },
        {
          "internalType": "uint256",
          "name": "_amount",
          "type": "uint256"
        }
      ],
      "stateMutability": "nonpayable",
      "type": "constructor"
    },
    {
      "anonymous": false,
      "inputs": [
        {
          "indexed": true,
          "internalType": "address",
          "name": "buyer",
          "type": "address"
        },
        {
          "indexed": false,
          "internalType": "uint256",
          "name": "amount",
          "type": "uint256"
        }
      ],
      "name": "BuyerRefunded",
      "type": "event"
    },
    {
      "anonymous": false,
      "inputs": [
        {
          "indexed": true,
          "internalType": "address",
          "name": "opener",
          "type": "address"
        }
      ],
      "name": "DisputeOpened",
      "type": "event"
    },
    {
      "anonymous": false,
      "inputs": [
        {
          "indexed": true,
          "internalType": "address",
          "name": "buyer",
          "type": "address"
        },
        {
          "indexed": false,
          "internalType": "uint256",
          "name": "amount",
          "type": "uint256"
        }
      ],
      "name": "FundsDeposited",
      "type": "event"
    },
    {
      "anonymous": false,
      "inputs": [
        {
          "indexed": true,
          "internalType": "address",
          "name": "seller",
          "type": "address"
        },
        {
          "indexed": false,
          "internalType": "uint256",
          "name": "amount",
          "type": "uint256"
        }
      ],
      "name": "FundsReleased",
      "type": "event"
    },
    {
      "inputs": [],
      "name": "amount",
      "outputs": [
        {
          "internalType": "uint256",
          "name": "",
          "type": "uint256"
        }
      ],
      "stateMutability": "view",
      "type": "function"
    },
    {
      "inputs": [],
      "name": "buyer",
      "outputs": [
        {
          "internalType": "address",
          "name": "",
          "type": "address"
        }
      ],
      "stateMutability": "view",
      "type": "function"
    },
    {
      "inputs": [],
      "name": "createdAt",
      "outputs": [
        {
          "internalType": "uint256",
          "name": "",
          "type": "uint256"
        }
      ],
      "stateMutability": "view",
      "type": "function"
    },
    {
      "inputs": [],
      "name": "deposit",
      "outputs": [],
      "stateMutability": "payable",
      "type": "function"
    },
    {
      "inputs": [],
      "name": "disputed",
      "outputs": [
        {
          "internalType": "bool",
          "name": "",
          "type": "bool"
        }
      ],
      "stateMutability": "view",
      "type": "function"
    },
    {
      "inputs": [],
      "name": "getEscrowDetails",
      "outputs": [
        {
          "internalType": "address",
          "name": "",
          "type": "address"
        },
        {
          "internalType": "address",
          "name": "",
          "type": "address"
        },
        {
          "internalType": "uint256",
          "name": "",
          "type": "uint256"
        },
        {
          "internalType": "bool",
          "name": "",
          "type": "bool"
        },
        {
          "internalType": "bool",
          "name": "",
          "type": "bool"
        },
        {
          "internalType": "uint256",
          "name": "",
          "type": "uint256"
        }
      ],
      "stateMutability": "view",
      "type": "function"
    },
    {
      "inputs": [],
      "name": "openDispute",
      "outputs": [],
      "stateMutability": "nonpayable",
      "type": "function"
    },
    {
      "inputs": [],
      "name": "refundBuyer",
      "outputs": [],
      "stateMutability": "nonpayable",
      "type": "function"
    },
    {
      "inputs": [],
      "name": "releaseFunds",
      "outputs": [],
      "stateMutability": "nonpayable",
      "type": "function"
    },
    {
      "inputs": [],
      "name": "released",
      "outputs": [
        {
          "internalType": "bool",
          "name": "",
          "type": "bool"
        }
      ],
      "stateMutability": "view",
      "type": "function"
    },
    {
      "inputs": [],
      "name": "seller",
      "outputs": [
        {
          "internalType": "address",
          "name": "",
          "type": "address"
        }
      ],
      "stateMutability": "view",
      "type": "function"
    }
  ],
  "bytecode": "0x608060405234801561001057600080fd5b506040516109e23803806109e283398101604081905261002f91610169565b6001600160a01b03831661007a5760405162461bcd60e51b815260206004820152600d60248201526c24b73b30b634b210313abcb2b960991b60448201526064015b60405180910390fd5b6001600160a01b0382166100c15760405162461bcd60e51b815260206004820152600e60248201526d24b73b30b634b21039b2b63632b960911b6044820152606401610071565b600081116101065760405162461bcd60e51b81526020600482015260126024820152710416d6f756e74206d757374206265203e20360741b6044820152606401610071565b600080546001600160a01b039485166001600160a01b03199182161790915560018054939094169216919091179091556002556003805461ffff19169055426004556101a5565b80516001600160a01b038116811461016457600080fd5b919050565b60008060006060848603121561017e57600080fd5b6101878461014d565b92506101956020850161014d565b9150604084015190509250925092565b61082e806101b46000396000f3fe60806040526004361061009c5760003560e01c806396132521116100645780639613252114610159578063aa8c217c14610173578063cf09e0d014610197578063d0e30db0146101ad578063e8a61cc8146101b5578063f5660660146101ca57600080fd5b80630695c46c146100a157806308551a53146100d55780634fd6137c1461010d57806369d89575146101245780637150d8ae14610139575b600080fd5b3480156100ad57600080fd5b506003546100c090610100900460ff1681565b60405190151581526020015b60405180910390f35b3480156100e157600080fd5b506001546100f5906001600160a01b031681565b6040516001600160a01b0390911681526020016100cc565b34801561011957600080fd5b5061012261022e565b005b34801561013057600080fd5b50610122610318565b34801561014557600080fd5b506000546100f5906001600160a01b031681565b34801561016557600080fd5b506003546100c09060ff1681565b34801561017f57600080fd5b5061018960025481565b6040519081526020016100cc565b3480156101a357600080fd5b5061018960045481565b610122610524565b3480156101c157600080fd5b50610122610642565b3480156101d657600080fd5b50600054600154600254600354600454604080516001600160a01b0396871681529590941660208601529284019190915260ff80821615156060850152610100909104161515608083015260a082015260c0016100cc565b6000546001600160a01b031633148061025157506001546001600160a01b031633145b6102915760405162461bcd60e51b815260206004820152600c60248201526b155b985d5d1a1bdc9a5e995960a21b60448201526064015b60405180910390fd5b600354610100900460ff16156102dc5760405162461bcd60e51b815260206004820152601060248201526f105b1c9958591e48191a5cdc1d5d195960821b6044820152606401610288565b6003805461ff00191661010017905560405133907f3193a157f4c79974417914163112a3ab14f94e226ec78d3637d1f9386b6f202590600090a2565b6000546001600160a01b0316331461035f5760405162461bcd60e51b815260206004820152600a60248201526927b7363c90313abcb2b960b11b6044820152606401610288565b60035460ff16156103a55760405162461bcd60e51b815260206004820152601060248201526f105b1c9958591e481c995b19585cd95960821b6044820152606401610288565b600354610100900460ff16156103f15760405162461bcd60e51b8152602060048201526011602482015270457363726f7720696e206469737075746560781b6044820152606401610288565b60025447146104365760405162461bcd60e51b8152602060048201526011602482015270115cd8dc9bddc81b9bdd08199d5b991959607a1b6044820152606401610288565b6003805460ff19166001908117909155546002546040516000926001600160a01b031691908381818185875af1925050503d8060008114610493576040519150601f19603f3d011682016040523d82523d6000602084013e610498565b606091505b50509050806104db5760405162461bcd60e51b815260206004820152600f60248201526e151c985b9cd9995c8819985a5b1959608a1b6044820152606401610288565b6001546002546040519081526001600160a01b03909116907f221c08a06b07a64803b3787861a3f276212fcccb51c2e6234077a9b8cb13047a906020015b60405180910390a250565b6000546001600160a01b0316331461056b5760405162461bcd60e51b815260206004820152600a60248201526927b7363c90313abcb2b960b11b6044820152606401610288565b60025434146105bc5760405162461bcd60e51b815260206004820181905260248201527f4465706f736974206d75737420657175616c20657363726f7720616d6f756e746044820152606401610288565b60025447146105fe5760405162461bcd60e51b815260206004820152600e60248201526d105b1c9958591e48199d5b99195960921b6044820152606401610288565b6000546040513481526001600160a01b03909116907f543ba50a5eec5e6178218e364b1d0f396157b3c8fa278522c2cb7fd99407d4749060200160405180910390a2565b6001546001600160a01b0316331461068a5760405162461bcd60e51b815260206004820152600b60248201526a27b7363c9039b2b63632b960a91b6044820152606401610288565b60035460ff16156106d05760405162461bcd60e51b815260206004820152601060248201526f105b1c9958591e481c995b19585cd95960821b6044820152606401610288565b60025447146107155760405162461bcd60e51b8152602060048201526011602482015270115cd8dc9bddc81b9bdd08199d5b991959607a1b6044820152606401610288565b6003805460ff19166001179055600080546002546040516001600160a01b03909216918381818185875af1925050503d8060008114610770576040519150601f19603f3d011682016040523d82523d6000602084013e610775565b606091505b50509050806107b65760405162461bcd60e51b815260206004820152600d60248201526c1499599d5b990819985a5b1959609a1b6044820152606401610288565b6000546002546040519081526001600160a01b03909116907fb236930c71cd15ee3f158a04e5a4021718f5e63ce29f097e22bcafc70906a4c29060200161051956fea26469706673582212207e289237c7c5d5ae644fe34e3e5df116e3c663dc1040eb35c2553fd745a30a2a64736f6c63430008140033",
  "linkReferences": {},
  "deployedLinkReferences": {}
}